:100000002100951321004A298231042A5530960097
:10001000AA3096009514000000000800281E6928E8
:10002000A413A5014830A400A4170C30840020308C
:1000300085008C30860020308700A1080319242811
:1000400012001E00A1031D280C306A208C30840091
:10005000203085002300151615150620151295165B
:100060001515120093001200940011081F391F3C4F
:10007000031995120620910A11081F39031D312812
:100080009501200008000719E32820083C39343C7A
:10009000031D0E282810A8112812AC1F2814213087
:1000A0002C027F3903196F2806302D020319BA2854
:1000B00005302D020319D52809302D020319D72840
:1000C00008302D020319DC283D000E1220000C30F0
:1000D000B3200C30A0004030A100A01708002D086C
:1000E0000319A628FF3E03198528FF3E0319A028FF
:1000F000FF3E03199628FF3E0319A628FF3E031969
:100100009C28FF3E0319A62864283D000E122000FB
:100110004830A0004030A100A017B208031994286D
:100120000521A81628160800A812B628E330A81A38
:10013000E830A9000630C628E730A9000130C628FB
:10014000AF08031DA628A8154030C628A8112812FC
:100150000030C6283D000E1220002818B628F120D5
:1001600048306A204830A400A4170800A413A50151
:100170000C30B1282F030319CD28FF3E0319D128D5
:10018000FF3E031D6428EE30A9001230AA0032029F
:100190000318AA283208AA00AA28B630A9001230EB
:1001A000C628C830A9001B30C628A814AA282811C0
:1001B000AE08031D2815AA28B8302819013EA90049
:1001C0000130AA00AA282818EA28F1200830241FA4
:1001D0000917B328A81C0800A8102E083D00960097
:1001E0000800A413A501A819122929088400813048
:1001F00085004C30860020308700AA0803190800CB
:1002000012001E00A50AAA03FD282E08230095014E
:1002100091018936910C8936910C8936910C9200A6
:10022000200008004C3086002030870005210301A3
:10023000403C0319252926211E0014081E00910A9E
:100240002000A50AA50A250818290800230015146E
:100250000000000013080800262138211408382166
:10026000910A0319920A11081F39031D2C2908004D
:10027000F0000830F100F336F20C720D7006091C24
:1002800045292330F306B130F206F036F103031DA1
:100290003B290800FC30990051301A05513C031DE0
:1002A0004C2990309B0023000030910002309200D6
:1002B000EC30F400F201F3012C21F403031D5C295E
:1002C000F208031D6F29F308031D6F29031E6F2910
:1002D00020008C1D6F29210095178231002A8B2167
:1002E0003D008E013D008E158E1D73293D00101CB2
:1002F0007C298B213D0010103D00901D88290F089E
:100300008700901120007839031D882943207C291B
:100310002000121176293D009301900114309100C4
:100320008401203085008C30870000301A00870B54
:1003300096293D000E1796010E120E13901DA3294B
:10034000901125219E291630980020000C30A20023
:0C0350004C30A6002030A300A700692854
:04036C001234013412
:1003700000340134FE340134003440340934123482
:1003800002342034013400340034003401340134A8
:10039000093402341B340034013401340034803415
:1003A000323409340434003400340034FE3401346F
:1003B0000034003409342134033400340034403430
:1003C000003400340134003400340034003402348A
:1003D0000034003400340034053400341234033463
:1003E00030340034303400343034003430340034AD
:1003F000303400343034003430340034313400349C
:1004000000008231082A08007E1482317E10090023
:1004100082310A2A4F3084009030850050308600A7
:10042000033087000030FF0007309031A320823175
:100430008430840091308500D030860003308700FE
:100440000030FF001C309031A32082312500E901EB
:10045000EA01EB01EC01ED01EE01EF012030840037
:10046000033085003030FE000030FF0090319720CF
:100470008231A0308400033085003030FE0000302F
:10048000FF009031972082312030840004308500B5
:100490002030FE000030FF00903197208231A030E4
:1004A0008400043085004030FE000030FF009031B1
:1004B0009720823120308400053085004030FE00D6
:1004C0000030FF00903197207E1020009131FE29EE
:1004D0002500C401260051082500D8002600500838
:1004E0002500D7005708860058088700413106309C
:1004F0000106031D4E2B57088600580887008030E0
:100500000106031D4E2B570886005808870042310C
:10051000403FB500413FB6003608B7003708D2006B
:10052000570886005808870042310108B500350891
:10053000D3005203031DB82AB730A6009830A70095
:10054000B7308400983085000008B500B601350842
:10055000A8003608A90057088600580887004631C9
:10056000403FAA00413FAB00893128218231152E3E
:10057000023025005206031DEE2A53080319C42A2F
:10058000903178208231152E25005335553E860056
:1005900003308700403FC600413FC7004708A7001F
:1005A0004608A6004708B6004608B50002303507E1
:1005B000840036080318360A8500003FA800013F72
:1005C000A90057088600580887004631403FAA0016
:1005D000413FAB00893128218231152E033025009F
:1005E0005206031D212BD430B50035082300EB0043
:1005F000250053088C315024823123006C082500DB
:10060000C90023006B082500C800C91F0B2B9031BF
:1006100078208231152E25005508A7005408A60021
:100620004908A9004808A80057088600580887000C
:100630004631403FAA00413FAB0089312821823139
:10064000152E25005808F5005708F400CC30B500E9
:100650003508F60090313520823175082500CB0031
:100660007408CA00CB1F382B903178208231152EA8
:1006700025004C08A6000030A7004B08A9004A0836
:10068000A80057088600580887004631403FAA0056
:10069000413FAB00893128218231152E25005708B2
:1006A000860058088700413105300106031D6A2B7A
:1006B0002600BA01BA0A25005708860058088700A4
:1006C00042310108B50035082600B9009031662096
:1006D0008231152E250057088600580887004131C1
:1006E00009300106031D8E2B570886005808870025
:1006F00042310108B5003508CD004D088231032292
:1007000082318E31922682319031662082312500ED
:100710004D08B50035082600CF00152E25005708D6
:10072000860058088700413108300106031DAD2BB3
:100730004F30A6000330A7000130A8000030A90008
:1007400057088600580887004631403FAA00413FBD
:10075000AB00893128218231152E250057088600EB
:100760005808870041310108031D552C57088600A1
:100770005808870001081F39003A031DDC2B90310F
:100780002820823175082500BE007408BD00BD30E8
:10079000A6000230A7000230A8000030A9005708C8
:1007A0008600580887004631403FAA00413FAB0011
:1007B000893128218231152E2500570886005808D6
:1007C000870001081F39023A031D512C5708860083
:1007D00058088700443101080F39B5003508CE00AC
:1007E00004304E0203184D2C4E08B500B6013508F2
:1007F000F4003608F5000730F6000030F7009131BC
:100800004E2182317408063E2500B7000030753D48
:10081000B800D030B9000330BA0037083907860075
:1008200038083A3D87000108BB003B08CF00570855
:100830008600580887004431403FB500413FB6006C
:10084000B51B252C4F080139272C4F080239B5005C
:10085000B6013508C1003608C20041084204031938
:10086000332C0130342C0030B5003508BF00C001F6
:10087000BF30A6000230A7000230A8000030A90057
:1008800057088600580887004631403FAA00413F7C
:10089000AB00893128218231152E903178208231A8
:1008A000152E903178208231152E250057088600AC
:1008B0005808870041310B300106031D7F2C570873
:1008C00086005808870042310108B5003508F40059
:1008D0005708860058088700443101088731FE27F1
:1008E00082312500B6003608C300C31F7B2C90312F
:1008F00078208231152E903166208231152E250008
:10090000570886005808870041310A300106031D48
:10091000B22C5708860058088700443101089031EE
:10092000232082312500B5003508D000D01F9C2C33
:10093000903178208231152ED0302500A60002306B
:10094000A7000130A8000030A90057088600580809
:1009500087004631403FAA00413FAB008931282142
:100960008231152E2500570886005808870041312E
:1009700001030319C42C5708860058088700413129
:1009800003300106031D132EC501C50A5708860052
:100990005808870001081F39023A031D082E57081E
:1009A000860058088700423116000104031D082EF6
:1009B0005708860058088700443101080F39B500F0
:1009C0003508D600570886005808870044310108CA
:1009D0008039B5003508D100043056020318082EBE
:1009E0005708860058088700413103300106031D6F
:1009F000072D51080319012D56089231BA22823170
:100A0000ED2D250056089231E7228231ED2D25008B
:100A1000510803196C2D5608B500B6013508F400CD
:100A20003608F5000730F6000030F70091314E210E
:100A300082317408053E2500B7000030753DB800CE
:100A4000D030B9000330BA003708390786003808BB
:100A50003A3D87000108BB005635BC000130BC356B
:100A6000FF3E031D2F2D3C35053E203E86008701AD
:100A70003B0881005635B5000130B535FF3E031DFA
:100A80003D2D3535043E203E860087018101F7303B
:100A9000B5005608B600B7013608F4003708F5006F
:100AA0000730F6000030F70091314E218231740892
:100AB000063E2500B8000030753DB900D030BA00C0
:100AC0000330BB0038083A07860039083B3D8700F1
:100AD00035088105FD30CB2D5608B500B601350827
:100AE000F4003608F5000730F6000030F7009131C9
:100AF0004E2182317408043E2500B7000030753D58
:100B0000B800D030B9000330BA0037083907860082
:100B100038083A3D87000108BB005635BC0001305B
:100B2000BC35FF3E031D902D3C35013E203E860026
:100B300087013B0881008830B5005635B60001308A
:100B4000B635FF3E031DA02D3635203E86008701B9
:100B5000350881005608B500B6013508F40036089E
:100B6000F5000730F6000030F70091314E21823158
:100B70007408063E2500B7000030753DB800D0303F
:100B8000B9000330BA0037083907860038083A3D03
:100B900087000115FE30B5005608B600B7013608CB
:100BA000F4003708F5000730F6000030F700913107
:100BB0004E2182317408063E2500B8000030753D94
:100BC000B900D030BA000330BB0038083A078600BD
:100BD00039083B3D87003508810525005708860008
:100BE00058088700413103300106031DF92D0130FB
:100BF000FA2D0030B5003508F40057088600580873
:100C00008700443101089031202082312500C50140
:100C10004508031D0F2E903166208231152E90312C
:100C200078208231152EC401C40325004408080031
:100C300025003B08CA003A08C900490886004A084E
:100C4000870041310108031D4B2E490886004A08E0
:100C5000870042310108BC003C082600C80025007E
:100C6000490886004A08870043310108BC003C0857
:100C70002600C90048302500B3000330B40002301C
:100C8000B5000030B6000030B700B800B9019131AE
:100C900069218631CB2F2500490886004A08870044
:100CA00041310103031D7F2E8E30C200FF30C10091
:100CB0000030C0000130BF0048308600033087009C
:100CC000BF3084000230850004302500BC003C08A1
:100CD00003196E2E12001E00BC0B6A2E4830250030
:100CE000B3000330B4000430B5000030B60000306B
:100CF000B700B800B901913169218631CB2F2500A9
:100D0000490886004A088700413102300106031D68
:100D1000982E0030B3000030B4000030B500B600AB
:100D20000030B700B800B901913169218631CB2F6D
:100D30002500490886004A08870041310330010632
:100D4000031DB22EEF30B3000230B4000130B50005
:100D50000030B6000030B700B800B9019131692108
:100D60008631CB2F2500490886004A08870041318B
:100D7000011DC92F3A0886003B0887004131010850
:100D8000BC003C08EE003A0886003B088700423170
:100D9000403F2600A400413FA50025003A088600F8
:100DA0003B08870044310135BC003C082600B200F6
:100DB000241CDC2E3214E22EFE302500BC003C0840
:100DC0002600B20525003A0886003B088700463118
:100DD000403F2600A600413FA700003027022130F7
:100DE00003192602031CF82E2030A6000030A700AD
:100DF00026082704031D3A2F25006E1C022F903170
:100E00002B20863126003208903141208631103067
:100E10002500BC009430890B0B2FBC0B0B2F00005E
:100E200090313A208631003A031D182F0230192FD5
:100E300001302500C3000030C4004308BC003C085A
:100E4000EF00EE18272F02306F06031D2A2F903176
:100E50003020863100302500B3000030B40000306F
:100E6000B500B6000030B700B800B9019131692172
:100E70008631CB2F260026082704031D2418512F66
:100E80002030F4000430F5002708F7002608F600AB
:100E90001B30F8000830F900FA0191310621863143
:100EA000CB2F241CCB2F25006E1C592F90312B20CB
:100EB00086312600320890314120863110302500DD
:100EC000BC009430890B622FBC0B622F0000903164
:100ED0003A208631003A031D6F2F0230702F013007
:100EE0002500C5000030C6004508BC003C08EF00E6
:100EF0006F03031DAF2FC701C80126002708250077
:100F00004802031D872F26002608250047020318E4
:100F1000AF2F26002608FF3E2500BC00FF3026002C
:100F2000273D2500BD0048083D06031D992F4708B1
:100F30003C0603199D2F01309E2F00309131A021D6
:100F400086312500BE004708203E86000430870019
:100F50003E0881000130C7070030C83D7D2FEE1CE0
:100F6000B42F90313020863120302500B30004307A
:100F7000B400260027082500B60026002608250014
:100F8000B5000030B700B800B90191316921863150
:100F9000CB2FFF30080000300800FC0117307C0226
:100FA000031808007508F8007408F7007C08770734
:100FB000840078080318780A8500120003190800D5
:100FC0007508F8007408F7007C0877078400780833
:100FD0000318780A85000008F900FA017C357607C5
:100FE000FB007B088600033087007908C03F7A0841
:100FF000C13F0130F7007708FC07CE2F0030080012
:1010000025003A0886003B088700C0300106031D12
:101010000B2800300D2800302500B3000030B4004C
:101020000030B500B6000030B700B800B90191310A
:1010300069210030080025006E1C212890312B20EA
:101040008831260032089031412088311030250047
:10105000A4009430890B2A28A40B2A280000903180
:101060003A208831003A031D3728023038280130F1
:101070002500A5000030A6002508A4002408EF00E4
:101080006F03031D7D28A901AA012600270825005A
:101090002A02031D4F2826002608250029020318CE
:1010A0007D282908203E8600043087000108903101
:1010B0004120883110302500A4009430890B5E282F
:1010C000A40B5E28000090313A208831003A031DBD
:1010D0006B2802306C2801302500A7000030A800E2
:1010E0002708A4002408EF0002306F0603197D28AA
:1010F0000130A9070030AA3D4528EE1883280230A8
:101100006F06031D080090313020080025003A08C2
:1011100086003B08870044310108BC003C08C3003E
:101120003A0886003B088700413120300106031D44
:10113000D6283A0886003B08870021300106031DA7
:10114000D6284308BC003C082600B40025003A0815
:1011500086003B0887004631403FBC00413FBD0050
:1011600000303D02073003193C02031CBC28073045
:10117000BF000030C000C5283A0886003B08870041
:101180004631403FBF00413FC0003B30F4000330D8
:10119000F5004008F7003F08F600AF30F8001030C7
:1011A000F900FA01913106210030080025003A08C3
:1011B00086003B088700413121300106031D2629A6
:1011C0003A0886003B088700A1300106031D262946
:1011D0003B30BC003C08F4004308903121208831AA
:1011E0002500BD003D08BE00BE1FF828FF300800E6
:1011F0003A0886003B0887004631403FBC00413F2B
:10120000BD0000303D02073003193C02031C0D29CC
:101210000730C1000030C20016293A0886003B089A
:1012200087004631403FC100413FC2003B30B30020
:101230000330B4004208B6004108B5000030B700E2
:10124000B800B9019131692100300800FF30080071
:10125000003025002902083003192802031C352913
:101260000830AC000030AD0039292908AD0028084D
:10127000AC002C082300EC006C082500B2003208FA
:101280002300EC00ED0125002B0823006D02031D57
:101290004D2925002A0823006C02031C552925002E
:1012A0002B08AF002A08AE00612925003208230070
:1012B000EC00ED016C082500AE0023006D08250050
:1012C000AF002E082300EC006C082500B2002B08AC
:1012D0002902031D6D292A082802031871290130EB
:1012E000722900302300EC006C082600B700520879
:1012F00086005308870025002608840027088500FB
:1013000032082300EC006C0803198A2912001E0021
:10131000EC0B8629250032082300EC00ED016C0857
:10132000250026072600AE0023006D082500273D76
:101330002600AF00250029082B02031DA12928083B
:101340002A02031CA7292908B1002808AA292B086A
:10135000B1002A08B00032082300EC00ED01EC09CE
:10136000ED09EC0A0319ED0A2500300823006C078B
:101370002500E900310823006D3D2500EA00260024
:10138000D415250032082300EC00ED016C08FB00A9
:101390006D08FC0092318D220800FB007B082500BF
:1013A000A000A1012008F4002108F5000730F60094
:1013B0000030F70091314E2189317408063E250036
:1013C000A2000030753DA300D030A4000330A5007A
:1013D0002208240786002308253D8700011DF229E5
:1013E0000130F3290030A6002608FA007A08031914
:1013F000322A7B08A000A1012008F4002108F50092
:101400000730F6000030F70091314E218931740821
:10141000043E2500A2000030753DA300D030A4009A
:101420000330A5002208240786002308253D8700F5
:101430000108A6007B35A7000130A735FF3E031D3C
:101440001D2A2735013E203E86008701260881009F
:10145000C830A0007B35A1000130A135FF3E031D3F
:101460002D2A6A2A7B08A000A1012008F400210887
:10147000F5000730F6000030F70091314E21893138
:101480007408043E2500A2000030753DA300D03052
:10149000A4000330A5002208240786002308253D68
:1014A00087000108A6007B35A7000130A735FF3E65
:1014B000031D562A2735013E203E86008701260857
:1014C00081008830A0007B35A1000130A135FF3EAE
:1014D000031D662A2135203E8600870120088100F1
:1014E0000430A0007B08A100A2012108F40022081A
:1014F000F5000730F6000030F70091314E217408F6
:10150000063E2500A3000030753DA400D030A500A4
:101510000330A6002308250786002408263D8700FF
:101520002008810608002000911EB02A3F302500C7
:101530006D020318B02A23009D1C9F2A1D12190852
:101540002500AD006D08203E8600053087002D087F
:10155000810023001D1601302500AD002D08ED0788
:10156000260030080319D82A23009E1CD82A2600FA
:101570003108A03E860004308700010823009A004D
:1015800001302500AD002D082600B10731082500E7
:10159000AD00AE012600230825002E06031DD42A27
:1015A0002600220825002D06031DD82A2600B0019A
:1015B0000330923120228A31003A031D08000330A3
:1015C0009031CC208A31003A031D080025006D08B7
:1015D0000319132B0330923143228A317B082600F2
:1015E000A1007A08A000200886002108870020308A
:1015F00084000530850025006D08AD002D08031915
:10160000052B12001E00AD0B012B25006D08AD004F
:10161000AE012D08FB002E08FC00033096313F265A
:101620008A312500ED0126003008031D0800033033
:101630009031DD208A31003A031908004C30FA005D
:101640000330FB000330933114238A312500AD00B1
:10165000AE012D082600A20025002E082600A300BA
:10166000220823040319552BA0308600043087007C
:1016700026004C0884004D08850023082500AE0094
:10168000260022082500AD002D082E060319512B37
:1016900012001E000130AD020030AE3B2E082D04BA
:1016A000462B2600B001B00AB10103308931CD21AB
:1016B0000800200021308500870040307107840039
:1016C0008600F00803194C2C0018802B801C6C2B12
:1016D000F2018C1AF2177217001F0E11001B0E1563
:1016E000801D0C1280190C16801F8E11801B8E1508
:1016F000801C7D2B72088100860A840AF003622B0D
:101700000001801B0914001B8914801A0915001A96
:1017100089158019091600198916F200F208F003DC
:10172000F0020008840A8918E22B03194A2C801B56
:101730000C16801F0C1200008E1500008E11000088
:10174000001B0C16001F0C1200008E1500008E11DD
:101750000000801A0C16801E0C1200008E1500006E
:101760008E110000001A0C16001E0C1200008E15BF
:1017700000008E11000080190C16801D0C12000054
:101780008E1500008E11000000190C16001D0C12A1
:1017900000008E1500008E11000080180C16801CB1
:1017A0000C1200008E1500008E11000000180C169F
:1017B000001C0C1200008E1500008E110000840A1F
:1017C000F203952B03194A2C0001801B0C16801F75
:1017D0000C1200008C1A891700008E1500008E1163
:1017E0000000001B0C16001F0C1200008C1A0917B9
:1017F00000008E1500008E110000801A0C16801E4D
:101800000C1200008C1A891600008E1500008E1133
:101810000000001A0C16001E0C1200008C1A09168B
:1018200000008E1500008E11000080190C16801D1E
:101830000C1200008C1A891500008E1500008E1104
:10184000000000190C16001D0C1200008C1A09155E
:1018500000008E1500008E11000080180C16801CF0
:101860000C1200008C1A891400008E1500008E11D5
:10187000000000180C16001C0C1200008C1A091431
:1018800000008E1500008E1100008100840A860A77
:10189000F203E22BF008622B40300602F100080050
:1018A000FD007D08031D622C23006B0886000230BA
:1018B0008700F930C03F9830C13F0430EB00003062
:1018C000EC00080003302300ED006D082700A100A4
:1018D00002307D06031D902CEA30F4009830F500AC
:1018E000A2302300ED006D08F6008731CD271E30B1
:1018F0002300ED006D082700A00023006B08860080
:1019000002308700A030C03F0330C13F27002008CD
:101910002300ED00EE016D08EB006E08EC000800FE
:1019200003307D06031DB82CA430F4009830F50078
:10193000A2302300ED006D08F6008731CD27263058
:101940002300ED006D082700A00023006B0886002F
:1019500002308700A030C03F0330C13F270020087D
:101960002300ED00EE016D08EB006E08EC000800AE
:101970007D03031DC92C23006B08860002308700FD
:10198000EE30C03F8130C13F1230EB000030EC0040
:10199000080004307D06031DF12CC930F400983096
:1019A000F500A2302300ED006D08F6008731CD2749
:1019B00022302300ED006D082700A00023006B08F3
:1019C000860002308700A030C03F0330C13F2700AF
:1019D00020082300ED00EE016D08EB006E08EC001E
:1019E000080005307D06031D192D8D30F400983058
:1019F000F500A2302300ED006D08F6008731CD27F9
:101A00002E302300ED006D082700A00023006B0896
:101A1000860002308700A030C03F0330C13F27005E
:101A200020082300ED00EE016D08EB006E08EC00CD
:101A3000080007307D06031D412D7530F4009830F5
:101A4000F500A2302300ED006D08F6008731CD27A8
:101A500030302300ED006D082700A00023006B0844
:101A6000860002308700A030C03F0330C13F27000E
:101A700020082300ED00EE016D08EB006E08EC007D
:101A8000080008307D06031D692DDA30F400983017
:101A9000F500A2302300ED006D08F6008731CD2758
:101AA00020302300ED006D082700A00023006B0804
:101AB000860002308700A030C03F0330C13F2700BE
:101AC00020082300ED00EE016D08EB006E08EC002D
:101AD0000800FF302300EB00FF30EC0008003D0061
:101AE000101C7A2D90315E208D319431CA248D31B5
:101AF0003D001010901EB12D01302500E700003090
:101B0000E8006808803ADD0080305D02031D8A2D00
:101B1000043067020318AF2D98302500DD000E3029
:101B2000DE0067085D07DF0068085E3DE0005F08D3
:101B3000E4006008E500640886006508870001107D
:101B40000130E7070030E83D6808803ADD0080306A
:101B50005D02031DAD2D04306702031C8C2D3D007A
:101B60009012901D862E0F0C2500DD00DD0C5D0C03
:101B70000F39003A031DE22D3D000F19E22D200020
:101B8000200C890C0F392500DD005D08E6000D30C2
:101B90006606031DCF2D94316E248D31DE2D093064
:101BA000250066060319DE2D6603031DDB2D953126
:101BB000B2258D31DE2D903178208D31903182200B
:101BC0008D31842E3D000F0C2500DD00DD0C5D0CF9
:101BD0000F39003A031DF32D3D000F1DF32D9531F4
:101BE00028258D31842E3D000F0C2500DD00DD0CF5
:101BF0005D0C0F39003A0319842E3D000F0C2500AF
:101C0000DD00DD0C5D0C0F39DE0004305E020318D0
:101C1000842E3D000F1D482E0F0C2500DD00DD0C2D
:101C20005D0C0F39DE00DF015E08F4005F08F5008F
:101C30000730F6000030F70091314E218D317408E5
:101C4000063E2500E0000030753DE100D030E200A6
:101C50000330E3006008620786006108633D870087
:101C6000811C3D2E3D000F0C2500DD00DD0C5D0CC0
:101C70000F39933186238D31842E3D000F0C2500C2
:101C8000DD00DD0C5D0C0F3990311D208D31842E6F
:101C90003D000F0C2500DD00DD0C5D0C0F39DE0072
:101CA000DF015E08F4005F08F5000730F600003041
:101CB000F70091314E218D317408063E2500E00079
:101CC0000030753DE100D030E2000330E3006008F1
:101CD000620786006108633D8700011C7A2E3D0083
:101CE0000F0C2500DD00DD0C5D0C0F399131BE219C
:101CF0008D31842E3D000F0C2500DD00DD0C5D0CC8
:101D00000F3990311E208D313D009011101F8D2E06
:101D100090311F208D313D0010132000121D08004E
:101D2000121108003D000E172600D4012500B40151
:101D3000043034020318C92E3408AA00AB012A0863
:101D4000F4002B08F5000730F6000030F700913161
:101D50004E218E317408063E2500AC000030753DE2
:101D6000AD00D030AE000330AF002C082E07B0001D
:101D70002D082F3DB100300886003108870004305F
:101D800081000130AA002A08B40704303402031C81
:101D90009C2E2030F4000030F5000030F600F700F3
:101DA0002030F8000030F90091311D218E312600DD
:101DB0005108FB005008FA0094311B248E317B0837
:101DC0002000A3007A08A20008302500AA002A08F3
:101DD0002000A10080302500AA002A082000A000D1
:101DE00026005308FB005208FA0094311B248E3160
:101DF0007B082000A7007A08A60008302500AA006A
:101E00002A082000A500A4012500B401B40A04306A
:101E100034020318FD2F3408AA00AB012A08F4008D
:101E20002B08F5000730F6000030F70091314E2105
:101E30008E31D0302500AC000330AD0074082C0783
:101E4000860075082D3D8700403FB200413FB3003A
:101E50003308FB003208FA0094311B248E31250030
:101E60003435AA000130AA35FF3E031D332F2A3531
:101E7000023E203E860087017A08C03F7B08C13FB2
:101E80003408AA00AB012A08F4002B08F50007303B
:101E9000F6000030F70091314E218E317408043E77
:101EA0002500AC000030753DAD00D030AE000330F1
:101EB000AF002C082E0786002D082F3D8700010853
:101EC000B0003435B1000130B135FF3E031D642F41
:101ED0003135013E203E8600870130088100883080
:101EE000AA003435AB000130AB35FF3E031D742F23
:101EF0002B35203E860087012A0881003408AA007D
:101F0000AB012A08F4002B08F5000730F60000307A
:101F1000F70091314E218E317408023E2500AC004D
:101F20000030753DAD00D030AE000330AF002C085E
:101F30002E0786002D082F3D8700403FB200413F0D
:101F4000B3003308FB003208FA0094311B248E31B1
:101F500025003435AA000130AA35FF3E031DAC2F01
:101F60002A35063E203E860087017A08C03F7B085E
:101F7000C13F3408AA00AB012A08F4002B08F50081
:101F80000730F6000030F70091314E218E31740891
:101F9000053E2500AC000030753DAD00D030AE00F0
:101FA0000330AF002C082E0786002D082F3D870038
:101FB0000108B0003435B1000130B135FF3E031DDA
:101FC000DD2F3135053E203E860087013008810037
:101FD0003435AA000130AA35FF3E031DEB2F2A3508
:101FE000043E203E8600870181010130AA002A08B4
:101FF000B40704303402031C0B2F3D000E130800FD
:10200000FF3FFF3FFF3FFF3FFF3FFF3FFF3FFF3FE0
:10201000FF3FFF3FFF3FFF3FFF3FFF3FFF3FFF3FD0
:10202000FF3FFF3FFF3FFF3FFF3FFF3FFF3FFF3FC0
:10203000FF3FFF3FFF3FFF3FFF3F08000800080052
:102040000800FF3008000030080026004F08080094
:10205000F401F501080090316E20240016140800E8
:1020600090316E20240016150800FF30F400FF3078
:10207000F500080003102400161F03140030093D6A
:102080000800FA0090316E207A08240091000800C0
:102090000830F40074082000A500A40108002034D2
:1020A00020342834203400340034983421000E11B8
:1020B0008E110C128C162000F10108002600330846
:1020C0000319080001302100970065282000A401B1
:1020D000A501C830F4007408A40008002830890B5A
:1020E0006F289131DC219031003A031D08007128DE
:1020F0000830F40074082000A5008430F40074084F
:10210000A40008000830F40074082000A10080300A
:10211000F4007408A00008002600AE01AF01AC0175
:10212000AD012500E901EA01EB01EC0108006400C2
:10213000800101310130FE020030FF3B7F087E0448
:10214000031900349828FE0012001E000130FE0220
:102150000030FF3B7F087E0403190034A4282500CB
:102160002208031908003B30A4002408FD002600C3
:10217000340892316822080023000E108E10283097
:10218000240095009601970177309200103094005A
:1021900021000E148E140800F5007535F40001308E
:1021A000F435FF3E031DD0287435043E203E8600E2
:1021B0008701010D010D01390800F5007535F400A6
:1021C0000130F435FF3E031DE1287435203E8600C2
:1021D00087010310811F03140030093D080021000E
:1021E0008E160E12243023009E0090309D00003089
:1021F0009C0067309B0008309F0019082600B00142
:102200002500ED012600A201A301080090318C20D9
:1022100079082500EC007808EB0075082600AD0071
:102220007408AC0077082500EA007608E9007A080F
:10223000FB007B082600B60008007508FB00740848
:10224000FA000130F8020030F93B780A0319790AE4
:10225000031908007A0886007B0887007608810049
:102260000130FA070030FB3D21290B1D40292600D3
:102270003308031940290B110130AA070030AB3D88
:10228000260029082B02031D472928082A02031CBF
:102290000800AA01AB01CE01B3010800F801F90161
:1022A000741C56297608F8077708F93D0130F63591
:1022B000F70D890B57290130F536F40C890B5C2991
:1022C00074087504031D50297908F5007808F40096
:1022D000080025003808EC003708EB003908230017
:1022E000EE006E082600B60025003408A70033086B
:1022F000A6003608A9003508A8003608AB00350846
:10230000AA00893128210800003400340034003448
:10231000003400340034303420343134203401347B
:102320004034003471342034B134203440340A3421
:102330000034BB342034FB34203440344034003487
:10234000FB0090316E2091312400961590316E2063
:10235000913124001108FA007A08FC0090316E20B7
:102360009131240096117B08031DB929240096168B
:10237000BB292400961216167C080800F600763554
:10238000F4000130F435FF3E031DC2297435013ECF
:10239000203E8600870181018430F4007635F50007
:1023A0000130F535FF3E031DD1297535203E8600ED
:1023B00087017408810008002400160C0139F4001C
:1023C000160CF500F50C750C0139F60016080139EC
:1023D000F700160C890C0139F800160E0139F900C6
:1023E000140C890C01397904780477047604740498
:1023F000031DFC29013008000030080023008C0177
:102400008E019031562091319031EF2091319031F1
:10241000BC2091319431CA2491318D316F25913195
:10242000903125209131003A03190D2A913135213F
:1024300091318A31932291319631D12691310D2AF1
:10244000FA007A082500A000A1012008F400210864
:10245000F5000730F6000030F70091314E21740886
:10246000063E2500A2000030753DA300D030A40038
:102470000330A5002208240786002308253D870095
:10248000010802390800FA007A082500A000A1011D
:102490002008F4002108F5000730F6000030F700AE
:1024A00091314E217408023E2500A2000030753D96
:1024B000A300D030A4000330A50022082407860022
:1024C0002308253D8700403FFA00413FFB000800FC
:1024D0007D08860003308700403FF400413FF5004F
:1024E000423FF600433FF7000030FB00B730FA00F0
:1024F0001B30F9000030F8009331C8237408FF3E08
:102500002500A000FF30753DA100200823009B009E
:102510002500210823009C00080000309231202271
:102520009231003A031D08002600D41D992A01307B
:102530009A2A0030FD007D082300EB002000A40152
:1025400023006B080319AB2A7B08FD007D082000DF
:10255000A500C830B12A7B08FD007D082000A50039
:102560008830FD007D08A4000830FD007D082600AD
:10257000D4060800FB007B080319080004307B0226
:10258000031808007B082500A800A9012808F4000A
:102590002908F5000730F6000030F70091314E2190
:1025A00092317408063E2500AA000030753DAB004C
:1025B000D030AC000330AD002A082C0786002B0871
:1025C0002D3D870081147B08933186230800FA0093
:1025D0007A080319080004307A02031808007A0800
:1025E0002500A000A1012008F4002108F500073013
:1025F000F6000030F70091314E2192317408063E0A
:102600002500A2000030753DA300D030A4000330A7
:10261000A5002208240786002308253D8700011411
:102620007A089131BE210800FC007C082300EB00F1
:10263000EC016B08F4006C08F5000730F600003080
:10264000F70091314E219331D0302300ED0003305B
:10265000EE0074086D07860075086E3D87007A08E5
:1026600084007B088500403F803F413F813F7C35AF
:10267000EB000130EB35FF3E031D3A2B6B35013E7D
:10268000203E860087010108080025004B088600CF
:102690004C0887004431403FCD00413FCE00CE1F63
:1026A000582B4C08BB004B08BA008631182608008E
:1026B00025004B0886004C088700011F662B4C083C
:1026C000BB004B08BA0088310020080025004D03EC
:1026D0004E040319702B02304D064E04031D772B58
:1026E0004C08BB004B08BA00883186200800043033
:1026F00025004D064E04031D842B4C08BB004B08DF
:10270000BA00973166270800FF300800FA007A08FF
:102710002500A000A1012008F4002108F5000730E1
:10272000F6000030F70091314E2193317408053ED8
:102730002500A2000030753DA300D030A400033076
:10274000A5002208240786002308253D87000108EC
:10275000A6007A35A7000130A735FF3E031DAC2B3C
:102760002735053E203E86008701260881008430FB
:10277000A0007A35A1000130A135FF3E031DBC2B1E
:102780002135043E203E8600870120088100080094
:1027900000302300EE000030ED000030EC0000308F
:1027A000EB0077087604750474040319122CEF010A
:1027B000EF0AF71BE72B0130F435F50DF60DF70D99
:1027C000890BDC2B0130FC007C08EF07D92B013092
:1027D000EB35EC0DED0DEE0D890BE82B77087B0248
:1027E000031DFC2B76087A02031DFC2B7508790269
:1027F000031DFC2B74087802031C072C7408F802D4
:102800007508F93B7608FA3B7708FB3B6B140130FF
:10281000F736F60CF50CF40C890B082C0130EF029E
:10282000031DE72B6E08F7006D08F6006C08F50035
:102830006B08F40008007B082300EE007A08ED0026
:1028400020306E02003003196D02031C2C2C6E0820
:10285000FB006D08FA0008006E082500A0002008A3
:102860002300EB006D082500A00020082300EC00E9
:102870006C0880392500A000A10123006B08250009
:10288000A200A301A235A30D20082207A40021085D
:10289000233DA500240825040319502C0130512C98
:1028A0000030A600A7012608F4002708F5005030E4
:1028B000F6000030F70091314E2123006C087F397B
:1028C00074072500A80075080318750AA9002808D0
:1028D000E03EFA001F30293DFB00080026005108A9
:1028E0002500DC00260050082500DB005B08860080
:1028F0005C0887000030811B01302600B500903154
:10290000482094312000A41F8C2C08302500D900C9
:1029100059082000A500A401250069086A040319CC
:10292000A42C6B086C040319A12CA2012600360804
:102930002500D9005908A3006C088A006B080A001A
:10294000943190318C20943125005B0886005C081E
:102950008700010E890C0339003A031DB82C82311F
:10296000682294312500D9005908DA00DA1FC72CF3
:102970005C08CC005B08CB009331452394312500E3
:10298000D9005908DA00DA1FC72C903178203D00B1
:102990000E1208003D0011109110920197018E1542
:1029A00011161115901190119011901190019830FD
:1029B000F4000E30F5000030F600F7001030F8009B
:1029C0000030F90091311D2194313D001816981105
:1029D0001815981418102500B501B50A04303502F1
:1029E00003181D2D3508983EFC00FD010E30FD3DFD
:1029F0007C08B6007D08B7003608860037088700D7
:102A000001163608860037088700811536088600CB
:102A100037088700011536088600370887008114BB
:102A2000360886003708870001100130FC007C085A
:102A3000B50704303502031CF22C3D009601260038
:102A4000BA01CF018E319226943190318C2008004A
:102A500026003A080319312D39083D00960026005A
:102A6000BA01250069086A0403198A2D00306A0238
:102A7000083003196902031C422D0830AD000030F4
:102A8000AE00462D6A08AE006908AD002D08AB0007
:102A90002B08AF0026005208860053088700260046
:102AA0002E0884002F08850025002F08AB002B0876
:102AB00003195E2D12001E00AB0B5A2D25002F08A6
:102AC000AB00AC012B08E9022C08EA3B2F08AB0055
:102AD000AC012B082600AE0725002C082600AF3DD0
:102AE000250069086A04031D7F2D08302F06031D89
:102AF0007F2D2600370803197F2DB801B80A25005D
:102B00002F08AB00AC012B08FB002C08FC00923115
:102B10008D220800260038080319992D0030FB008B
:102B2000FC0092318D2295312600B80190318C2025
:102B3000080026003508031D080025006B086C04FA
:102B40000319AF2DA201A20A260036082500AB000A
:102B50002B08A3006C088A006B080A00953190319D
:102B60008C200800200021082500AB002B08AF00B6
:102B700026003503031DD12D25006B086C040319B5
:102B8000CE2DA201A20A260036082500AB002B0894
:102B9000A3006C088A006B080A00953190318C20E4
:102BA000080026002C082D040319080025002F0812
:102BB000AB00AC016A082C02031DE02D69082B0252
:102BC000031CE72D6A08AE006908AD00EE2D2F0842
:102BD000AB00AC012B08AD002C08AE002D08AB00FB
:102BE0002B08B00026002C0886002D088700260040
:102BF000500884005108850025003008AB002B08E0
:102C00000319062E12001E00AB0B022E2500300801
:102C1000AB00AC012B082600AC0725002C082600D1
:102C2000AD3D25003008AB00AC012B08E9022C08B3
:102C3000EA3B08302F02031C212E69086A04031D99
:102C400008002F08300203183C2E9031782095316F
:102C500025006B086C040319392EA20126003608E2
:102C60002500AB002B08A3006C088A006B080A0043
:102C7000963190318C2008009031662008002300A6
:102C8000EC0026004F080319080023006C0892315D
:102C900020229631003A031D080023006C352500E0
:102CA000A6000130A635FF3E031D522E2635043EF8
:102CB000203EA70027082300ED006C082500A60091
:102CC000A7012608F4002708F5000730F6000030B9
:102CD000F70091314E2196317408063E2500A80078
:102CE0000030753DA900D030AA000330AB002808A1
:102CF0002A07860029082B3D8700811D812E01307F
:102D0000822E0030AC002C082300EB006D088600FA
:102D1000870181016B080319992E7B082500A60005
:102D200023006D0A86008701250026088100C8302F
:102D3000A42E7B082500A60023006D0A86008701CB
:102D40002500260881008830A60023006D08860033
:102D500087012500260881000830A60023006C08A2
:102D60002500A700A8012708F4002808F50007306F
:102D7000F6000030F70091314E217408063E250020
:102D8000A9000030753DAA00D030AB000330AC0084
:102D900029082B0786002A082C3D87002608810673
:102DA00008002B2F0130923120229631003A031D6A
:102DB000322F200071080319322F01309231432243
:102DC00096317B082500AE007A08AD00200071081E
:102DD000FD007D082500B1003F303102031CF42EB8
:102DE0003E30FD007D08B1002D0886002E088700CA
:102DF0004231203084000230850025003108FD007A
:102E00007D080319072F12001E00FD0B032F25005C
:102E10003108023EFB00003003180130FC00013095
:102E200096313F269631250031082000F1022030EE
:102E300086000230870025003108203E84000230E1
:102E4000850020007108FD007D0803192B2F12005A
:102E50001E00FD0B272F01309031CC209631003A17
:102E60000319D22E0A302000710203180800023024
:102E70009031DD209631003A03190800AF30FA0096
:102E80000230FB000230933114239631FD007D089F
:102E90002000F0007108203E8600023087002500E7
:102EA0002F0884003008850020007008FD007D0890
:102EB00003195E2F12001E00FD0B5A2F02308931BC
:102EC000CD2196318B31592396312B2F25003A088D
:102ED00086003B08870021300106031DA32F3A0816
:102EE00086003B08870041310108031DA32F2600FF
:102EF000CE01CE0A00302500B3000030B40000300F
:102F0000B500B6000030B700B800B90191316921B1
:102F10002600B301B30A25003A0886003B08870063
:102F20004231403F2600A800413FA900AA01AB0161
:102F30002100951295151514951415158B12200066
:102F400095010030080025003A0886003B088700FC
:102F5000A1300106031DC52F3A0886003B088700F3
:102F6000413105300106031DC52F4E30B30003303B
:102F7000B4000130B5000030B6000030B700B80032
:102F8000B901913169210030080025003A08860016
:102F90003B088700A1300106031DFE2F3A0886007A
:102FA0003B088700413103300106031DFE2F260038
:102FB0004E082300EF006F082600C600C201C301BF
:102FC00004302300EF006F082600C400C501FF3065
:102FD0002300EF006F082600C70042302500B30031
:102FE0000330B4000630B5000030B6000030B70042
:102FF000B800B9019131692100300800FF300800A4
:10300000093402347534003405340134003480341A
:10301000323409340434003400340234FF34FF34D1
:10302000FF3404340734053481340234403400342E
:1030300000340734053402340234403400340034A0
:1030400009340434013400340134023402340034CD
:103050000534053424340034103401340434243469
:103060000234003405342434063401340234053487
:1030700024340134013402340734053482340334F7
:103080000A34003401340934043402340034023484
:103090000A3400340034063407340534033402346F
:1030A000403400340034073405348334023440346F
:1030B0000034003409340434033400340034FF3461
:1030C000FF34013407340934043404340034003448
:1030D000FE34013401340834093421340334E83433
:1030E000033440340034003401344D345834313426
:1030F00030342F345334703469346434653472346A
:1031000020344934323443342034543469346E34F6
:10311000793455345334423400344D3458343134D6
:1031200030342F3453347034693464346534723439
:1031300020344334443443342034533465347234BB
:10314000693461346C3400344D34583431343034A3
:103150002F345334703469346434653472345334E6
:103160006F344D3420344D344334553400341234EC
:103170000134003402340034003400340834D834CC
:103180000434D034EF3400340134023403340134D5
:1031900001344D345834313430342F345334703496
:1031A000693464346534723420344A3454344134DC
:1031B000473400344D345834313430342F345334A0
:1031C00070346934643465347234203444344634A1
:1031D00055340034413472346934653473342034E6
:1031E00045346D3462346534643464346534643435
:1031F00000340434033409340434FF3FFF3FFF3FFD
:10320000FF3FFF3FFF3FFF3FFF3FFF3FFF3FFF3FCE
:10321000FF3FFF3FFF3FFF3FFF3FFF3FFF3FFF3FBE
:10322000FF3FFF3FFF3FFF3FFF3FFF3FFF3FFF3FAE
:10323000FF3FFF3FFF3FFF3FFF3FFF3FFF3FFF3F9E
:103EF000FF3FFF3FFF3FFF3FFF3FFF3FFF3FE92601
:103F0000FF3FFF3FFF3FFF3FFF3FFF3FFF3FFF3FC1
:103F1000FF3FFF3FFF3FFF3FFF3FFF3FFF3FFF3FB1
:103F2000FF3FFF3FFF3FFF3FFF3FFF3FFF3FFF3FA1
:103F3000FF3FFF3FFF3FFF3FFF3FFF3FFF3FFF3F91
:103F4000FF3FFF3FFF3FFF3FFF3FFF3FFF3FFF3F81
:103F5000FF3FFF3FFF3FFF3FFF3FFF3FFF3FFF3F71
:103F6000FF3FFF3FFF3FFF3FFF3FFF3FFF3FFF3F61
:103F7000FF3FFF3FFF3FFF3FFF3FFF3FFF3FFF3F51
:103F8000FF3FFF3FFF3FFF3FFF3FFF3FFF3FFF3F41
:103F9000FF3FFF3FFF3FFF3FFF3FFF3FFF3FFF3F31
:103FA000FF3FFF3FFF3FFF3FFF3FFF3FFF3FFF3F21
:103FB000FF3FFF3FFF3FFF3FFF3FFF3FFF3FFF3F11
:103FC000FF3FFF3FFF3FFF3FFF3FFF3FFF3FFF3F01
:103FD000FF3FFF3FFF3FFF3FFF3FFF3FFF3FFF3FF1
:103FE000FF3FFF3FFF3FFF3FFF3FFF3FFF3FFF3FE1
:103FF000FF3FFF3FFF3FFF3FFF3FFF3FFF3FFF3FD1
:020000040001F9
:02000E000C0FD5
:02001000CE1F01
:00000001FF
