:1004000000008231082A08007E1482317E10090023
:1004100082310A2A7D308400903085005130860078
:10042000033087000030FF0007309031CB2082314D
:10043000AE30840091308500D030860003308700D4
:100440000030FF001C309031CB2082312500E901C3
:10045000EA01EB01EC01ED01EE01EF012030840037
:10046000033085003130FE000030FF009031BF20A6
:100470008231A0308400033085003030FE0000302F
:10048000FF009031BF20823120308400043085008D
:100490002030FE000030FF009031BF208231A030BC
:1004A0008400043085004030FE000030FF009031B1
:1004B000BF20823120308400053085004030FE00AE
:1004C0000030FF009031BF207E1020009231062ABC
:1004D0002500C401260052082500D8002600510836
:1004E0002500D7005708860058088700413106309C
:1004F0000106031D4E2B57088600580887008030E0
:100500000106031D4E2B570886005808870042310C
:10051000403FB500413FB6003608B7003708D2006B
:10052000570886005808870042310108B500350891
:10053000D3005203031DB82AB730A6009830A70095
:10054000B7308400983085000008B500B601350842
:10055000A8003608A90057088600580887004631C9
:10056000403FAA00413FAB00893134218231152E32
:10057000023025005206031DEE2A53080319C42A2F
:100580009031A0208231152E25005335563E86002D
:1005900003308700403FC600413FC7004708A7001F
:1005A0004608A6004708B6004608B50002303507E1
:1005B000840036080318360A8500003FA800013F72
:1005C000A90057088600580887004631403FAA0016
:1005D000413FAB00893134218231152E0330250093
:1005E0005206031D212BD430B50035082300EB0043
:1005F000250053088C315024823123006C082500DB
:10060000C90023006B082500C800C91F0B2B9031BF
:10061000A0208231152E25005508A7005408A600F9
:100620004908A9004808A80057088600580887000C
:100630004631403FAA00413FAB008931342182312D
:10064000152E25005808F5005708F400CC30B500E9
:100650003508F60090316320823175082500CB0003
:100660007408CA00CB1F382B9031A0208231152E80
:1006700025004C08A6000030A7004B08A9004A0836
:10068000A80057088600580887004631403FAA0056
:10069000413FAB00893134218231152E25005708A6
:1006A000860058088700413105300106031D6A2B7A
:1006B0002600BB01BB0A25005708860058088700A2
:1006C00042310108B50035082600BA009031842077
:1006D0008231152E250057088600580887004131C1
:1006E00009300106031D8E2B570886005808870025
:1006F00042310108B5003508CD004D088231032292
:1007000082318E31922682319031842082312500CF
:100710004D08B50035082600D000152E25005708D5
:10072000860058088700413108300106031DAD2BB3
:100730005030A6000330A7000130A8000030A90007
:1007400057088600580887004631403FAA00413FBD
:10075000AB00893134218231152E250057088600DF
:100760005808870041310108031D552C57088600A1
:100770005808870001081F39003A031DDC2B90310F
:100780005620823175082500BE007408BD00BD30BA
:10079000A6000230A7000230A8000030A9005708C8
:1007A0008600580887004631403FAA00413FAB0011
:1007B000893134218231152E2500570886005808CA
:1007C000870001081F39023A031D512C5708860083
:1007D00058088700443101080F39B5003508CE00AC
:1007E00004304E0203184D2C4E08B500B6013508F2
:1007F000F4003608F5000730F6000030F7009131BC
:100800005D2182317408063E2500B7000030753D39
:10081000B800D030B9000330BA0037083907860075
:1008200038083A3D87000108BB003B08CF00570855
:100830008600580887004431403FB500413FB6006C
:10084000B51B252C4F080139272C4F080239B5005C
:10085000B6013508C1003608C20041084204031938
:10086000332C0130342C0030B5003508BF00C001F6
:10087000BF30A6000230A7000230A8000030A90057
:1008800057088600580887004631403FAA00413F7C
:10089000AB00893134218231152E9031A020823174
:1008A000152E9031A0208231152E25005708860084
:1008B0005808870041310B300106031D7F2C570873
:1008C00086005808870042310108B5003508F40059
:1008D0005708860058088700443101088731FE27F1
:1008E00082312500B6003608C300C31F7B2C90312F
:1008F000A0208231152E903184208231152E2500C2
:10090000570886005808870041310A300106031D48
:10091000B22C5708860058088700443101089031EE
:10092000512082312500B5003508D000D01F9C2C05
:100930009031A0208231152ED0302500A600023043
:10094000A7000130A8000030A90057088600580809
:1009500087004631403FAA00413FAB008931342136
:100960008231152E2500570886005808870041312E
:1009700001030319C42C5708860058088700413129
:1009800003300106031D132EC501C50A5708860052
:100990005808870001081F39023A031D082E57081E
:1009A000860058088700423116000104031D082EF6
:1009B0005708860058088700443101080F39B500F0
:1009C0003508D600570886005808870044310108CA
:1009D0008039B5003508D100043056020318082EBE
:1009E0005708860058088700413103300106031D6F
:1009F000072D51080319012D56089231E122823149
:100A0000ED2D2500560893310E238231ED2D250062
:100A1000510803196C2D5608B500B6013508F400CD
:100A20003608F5000730F6000030F70091315D21FF
:100A300082317408053E2500B7000030753DB800CE
:100A4000D030B9000330BA003708390786003808BB
:100A50003A3D87000108BB005635BC000130BC356B
:100A6000FF3E031D2F2D3C35053E203E86008701AD
:100A70003B0881005635B5000130B535FF3E031DFA
:100A80003D2D3535043E203E860087018101F7303B
:100A9000B5005608B600B7013608F4003708F5006F
:100AA0000730F6000030F70091315D218231740883
:100AB000063E2500B8000030753DB900D030BA00C0
:100AC0000330BB0038083A07860039083B3D8700F1
:100AD00035088105FD30CB2D5608B500B601350827
:100AE000F4003608F5000730F6000030F7009131C9
:100AF0005D2182317408043E2500B7000030753D49
:100B0000B800D030B9000330BA0037083907860082
:100B100038083A3D87000108BB005635BC0001305B
:100B2000BC35FF3E031D902D3C35013E203E860026
:100B300087013B0881008830B5005635B60001308A
:100B4000B635FF3E031DA02D3635203E86008701B9
:100B5000350881005608B500B6013508F40036089E
:100B6000F5000730F6000030F70091315D21823149
:100B70007408063E2500B7000030753DB800D0303F
:100B8000B9000330BA0037083907860038083A3D03
:100B900087000115FE30B5005608B600B7013608CB
:100BA000F4003708F5000730F6000030F700913107
:100BB0005D2182317408063E2500B8000030753D85
:100BC000B900D030BA000330BB0038083A078600BD
:100BD00039083B3D87003508810525005708860008
:100BE00058088700413103300106031DF92D0130FB
:100BF000FA2D0030B5003508F40057088600580873
:100C000087004431010890314E2082312500C50112
:100C10004508031D0F2E903184208231152E90310E
:100C2000A0208231152EC401C40325004408080009
:100C300025003B08CA003A08C900490886004A084E
:100C4000870041310108031D4B2E490886004A08E0
:100C5000870042310108BC003C082600C90025007D
:100C6000490886004A08870043310108BC003C0857
:100C70002600CA0049302500B3000330B40002301A
:100C8000B5000030B6000030B700B800B9019131AE
:100C900078218631CB2F2500490886004A08870035
:100CA00041310103031D7F2E8E30C200FF30C10091
:100CB0000030C0000130BF0049308600033087009B
:100CC000BF3084000230850004302500BC003C08A1
:100CD00003196E2E12001E00BC0B6A2E493025002F
:100CE000B3000330B4000430B5000030B60000306B
:100CF000B700B800B901913178218631CB2F25009A
:100D0000490886004A088700413102300106031D68
:100D1000982E0030B3000030B4000030B500B600AB
:100D20000030B700B800B901913178218631CB2F5E
:100D30002500490886004A08870041310330010632
:100D4000031DB22EEF30B3000230B4000130B50005
:100D50000030B6000030B700B800B90191317821F9
:100D60008631CB2F2500490886004A08870041318B
:100D7000011DC92F3A0886003B0887004131010850
:100D8000BC003C08EE003A0886003B088700423170
:100D9000403F2600A400413FA50025003A088600F8
:100DA0003B08870044310135BC003C082600B200F6
:100DB000241CDC2E3214E22EFE302500BC003C0840
:100DC0002600B20525003A0886003B088700463118
:100DD000403F2600A600413FA700003027022130F7
:100DE00003192602031CF82E2030A6000030A700AD
:100DF00026082704031D3A2F25006E1C022F903170
:100E0000592086312600320890316F20863110300B
:100E10002500BC009430890B0B2FBC0B0B2F00005E
:100E2000903168208631003A031D182F0230192FA7
:100E300001302500C3000030C4004308BC003C085A
:100E4000EF00EE18272F02306F06031D2A2F903176
:100E50005E20863100302500B3000030B400003041
:100E6000B500B6000030B700B800B9019131782163
:100E70008631CB2F260026082704031D2418512F66
:100E80002030F4000430F5002708F7002608F600AB
:100E90004F30F8001530F900FA0191312E218631DA
:100EA000CB2F241CCB2F25006E1C592F903159209D
:100EB00086312600320890316F20863110302500AF
:100EC000BC009430890B622FBC0B622F0000903164
:100ED00068208631003A031D6F2F0230702F0130D9
:100EE0002500C5000030C6004508BC003C08EF00E6
:100EF0006F03031DAF2FC701C80126002708250077
:100F00004802031D872F26002608250047020318E4
:100F1000AF2F26002608FF3E2500BC00FF3026002C
:100F2000273D2500BD0048083D06031D992F4708B1
:100F30003C0603199D2F01309E2F00309131CA21AC
:100F400086312500BE004708203E86000430870019
:100F50003E0881000130C7070030C83D7D2FEE1CE0
:100F6000B42F90315E20863120302500B30004304C
:100F7000B400260027082500B60026002608250014
:100F8000B5000030B700B800B90191317821863141
:100F9000CB2FFF30080000300800FC0117307C0226
:100FA000031808007508F8007408F7007C08770734
:100FB000840078080318780A8500120003190800D5
:100FC0007508F8007408F7007C0877078400780833
:100FD0000318780A85000008F900FA017C357607C5
:100FE000FB007B088600033087007908C03F7A0841
:100FF000C13F0130F7007708FC07CE2F0030080012
:101000002300EC00260050080319080023006C0898
:10101000923147228831003A031D080023006C35C5
:101020002500A6000130A635FF3E031D13282635F6
:10103000043E203EA70027082300ED006C08250091
:10104000A600A7012608F4002708F5000730F600DF
:101050000030F70091315D2188317408063E25008B
:10106000A8000030753DA900D030AA000330AB00C5
:1010700028082A07860029082B3D8700811D422861
:10108000013043280030AC002C082300EB006D0831
:101090008600870181016B0803195A287B08250007
:1010A000A60023006D0A860087012500260881001E
:1010B000C83065287B082500A60023006D0A86003D
:1010C00087012500260881008830A60023006D08CE
:1010D000860087012500260881000830A60023002D
:1010E0006C082500A700A8012708F4002808F500CF
:1010F0000730F6000030F70091315D217408063E9C
:101100002500A9000030753DAA00D030AB000330A7
:10111000AC0029082B0786002A082C3D87002608EA
:101120008106080025003A0886003B088700443104
:101130000108BC003C08C3003A0886003B08870051
:10114000413120300106031DE2283A0886003B08A1
:10115000870021300106031DE2284308BC003C083B
:101160002600B50025003A0886003B088700463176
:10117000403FBC00413FBD0000303D020730031935
:101180003C02031CC8280730BF000030C000D12833
:101190003A0886003B0887004631403FBF00413F88
:1011A000C0003C30F4000330F5004008F7003F0871
:1011B000F600D730F8001030F900FA0191312E21F5
:1011C0000030080025003A0886003B0887004131BE
:1011D00021300106031D32293A0886003B088700AA
:1011E000A1300106031D32293C30BC003C08F4004C
:1011F000430890314F2088312500BD003D08BE00D6
:10120000BE1F0429FF3008003A0886003B0887000B
:101210004631403FBC00413FBD0000303D02073039
:1012200003193C02031C19290730C1000030C20019
:1012300022293A0886003B0887004631403FC1001A
:10124000413FC2003C30B3000330B4004208B60056
:101250004108B5000030B700B800B90191317821DC
:1012600000300800FF300800003025002902083057
:1012700003192802031C41290830AC000030AD00DE
:1012800045292908AD002808AC002C082300EC00F3
:101290006C082500B20032082300EC00ED012500A7
:1012A0002B0823006D02031D592925002A0823005D
:1012B0006C02031C612925002B08AF002A08AE0030
:1012C0006D29250032082300EC00ED016C08250093
:1012D000AE0023006D082500AF002E082300EC00AF
:1012E0006C082500B2002B082902031D79292A0861
:1012F000280203187D2901307E2900302300EC00EC
:101300006C082600B80053088600540887002500A2
:10131000260884002708850032082300EC006C08AA
:101320000319962912001E00EC0B922925003208A1
:101330002300EC00ED016C08250026072600AE0016
:1013400023006D082500273D2600AF002500290851
:101350002B02031DAD2928082A02031CB3292908E2
:10136000B1002808B6292B08B1002A08B0003208BD
:101370002300EC00ED01EC09ED09EC0A0319ED0A7C
:101380002500300823006C072500E9003108230000
:101390006D3D2500EA002600D51525003208230002
:1013A000EC00ED016C08FB006D08FC009231B422EA
:1013B0000800FB007B082500A000A1012008F40024
:1013C0002108F5000730F6000030F70091315D216B
:1013D00089317408063E2500A2000030753DA30047
:1013E000D030A4000330A50022082407860023087B
:1013F000253D8700011DFE290130FF290030A60090
:101400002608FA007A0803193E2A7B08A000A101E9
:101410002008F4002108F5000730F6000030F7003E
:1014200091315D2189317408043E2500A20000300D
:10143000753DA300D030A4000330A5002208240786
:1014400086002308253D87000108A6007B35A700FC
:101450000130A735FF3E031D292A2735013E203ED6
:101460008600870126088100C830A0007B35A100D6
:101470000130A135FF3E031D392A762A7B08A000E2
:10148000A1012008F4002108F5000730F600003023
:10149000F70091315D2189317408043E2500A200D6
:1014A0000030753DA300D030A4000330A500220811
:1014B000240786002308253D87000108A6007B3508
:1014C000A7000130A735FF3E031D622A2735013EE4
:1014D000203E86008701260881008830A0007B35E9
:1014E000A1000130A135FF3E031D722A2135203EA7
:1014F00086008701200881000430A0007B08A1003D
:10150000A2012108F4002208F5000730F60000309F
:10151000F70091315D217408063E2500A3000030DC
:10152000753DA400D030A5000330A6002308250790
:1015300086002408263D8700200881060800200038
:10154000911EBC2A3F3025006D020318BC2A2300DF
:101550009D1CAB2A1D1219082500AD006D08203E08
:101560008600053087002D08810023001D160130FC
:101570002500AD002D08ED07260030080319E42AE8
:1015800023009E1CE42A26003108A03E8600043079
:101590008700010823009A0001302500AD002D08C6
:1015A0002600B10731082500AD00AE012600230852
:1015B00025002E06031DE02A2600220825002D0600
:1015C000031DE42A2600B0010330923147228A31FC
:1015D000003A031D080003309031F4208A31003AAC
:1015E000031D080025006D0803191F2B03309231DD
:1015F0006A228A317B082600A1007A08A000200810
:1016000086002108870020308400053085002500F1
:101610006D08AD002D080319112B12001E00AD0B33
:101620000D2B25006D08AD00AE012D08FB002E0826
:10163000FC000330883100208A312500ED012600AE
:101640003008031D08000330913105218A31003A2A
:10165000031908004D30FA000330FB0003309331CA
:101660003B238A312500AD00AE012D082600A200E3
:1016700025002E082600A300220823040319612B4D
:10168000A03086000430870026004D0884004E08F4
:10169000850023082500AE00260022082500AD00A5
:1016A0002D082E0603195D2B12001E000130AD021D
:1016B0000030AE3B2E082D04522B2600B001B00A9C
:1016C000B10103308931D921080020002130850083
:1016D00087004030710784008600F00803194C2C05
:1016E000801B8C2B001F782BF2018C1A7214F214C1
:1016F000801C0E1180180E15001E0C12001A0C16FC
:10170000001C8E1100188E15001F892B7208810095
:10171000860A840AF0036E2B00083F39F200F003BA
:10172000F0020008840A091BE22B03194A2C001856
:101730000C16001C0C1200008E1500008E1100000B
:1017400080180C16801C0C1200008E1500008E11E3
:10175000000000190C16001D0C1200008E15000070
:101760008E11000080190C16801D0C1200008E15C1
:1017700000008E110000001A0C16001E0C12000052
:101780008E1500008E110000801A0C16801E0C129F
:1017900000008E1500008E110000001B0C16001FAB
:1017A0000C1200008E1500008E110000801B0C161C
:1017B000801F0C1200008E1500008E110000840A9C
:1017C000F203952B03194A2C000100180C16001C7B
:1017D0000C1200008C1A091400008E1500008E11E6
:1017E000000080180C16801C0C1200008C1A891442
:1017F00000008E1500008E11000000190C16001D4F
:101800000C1200008C1A091500008E1500008E11B4
:10181000000080190C16801D0C1200008C1A89150E
:1018200000008E1500008E110000001A0C16001E1C
:101830000C1200008C1A091600008E1500008E1183
:101840000000801A0C16801E0C1200008C1A8916DB
:1018500000008E1500008E110000001B0C16001FEA
:101860000C1200008C1A091700008E1500008E1152
:101870000000801B0C16801F0C1200008C1A8917A8
:1018800000008E1500008E1100008100840A860A77
:10189000F203E22BF0086E2B40300602F100080044
:1018A000FD007D08031D622C23006B0886000230BA
:1018B0008700F930C03F9830C13F0430EB00003062
:1018C000EC00080003302300ED006D082700A100A4
:1018D00002307D06031D902CEA30F4009830F500AC
:1018E000A2302300ED006D08F6008731CD271E30B1
:1018F0002300ED006D082700A00023006B08860080
:1019000002308700A030C03F0330C13F27002008CD
:101910002300ED00EE016D08EB006E08EC000800FE
:1019200003307D06031DB82CA430F4009830F50078
:10193000A2302300ED006D08F6008731CD27263058
:101940002300ED006D082700A00023006B0886002F
:1019500002308700A030C03F0330C13F270020087D
:101960002300ED00EE016D08EB006E08EC000800AE
:101970007D03031DC92C23006B08860002308700FD
:10198000EE30C03F8130C13F1230EB000030EC0040
:10199000080004307D06031DF12CC930F400983096
:1019A000F500A2302300ED006D08F6008731CD2749
:1019B00022302300ED006D082700A00023006B08F3
:1019C000860002308700A030C03F0330C13F2700AF
:1019D00020082300ED00EE016D08EB006E08EC001E
:1019E000080005307D06031D192D8D30F400983058
:1019F000F500A2302300ED006D08F6008731CD27F9
:101A00002E302300ED006D082700A00023006B0896
:101A1000860002308700A030C03F0330C13F27005E
:101A200020082300ED00EE016D08EB006E08EC00CD
:101A3000080007307D06031D412D7530F4009830F5
:101A4000F500A2302300ED006D08F6008731CD27A8
:101A500030302300ED006D082700A00023006B0844
:101A6000860002308700A030C03F0330C13F27000E
:101A700020082300ED00EE016D08EB006E08EC007D
:101A8000080008307D06031D692DDA30F400983017
:101A9000F500A2302300ED006D08F6008731CD2758
:101AA00020302300ED006D082700A00023006B0804
:101AB000860002308700A030C03F0330C13F2700BE
:101AC00020082300ED00EE016D08EB006E08EC002D
:101AD0000800FF302300EB00FF30EC0008003D0061
:101AE000101C7A2D90314D208D319431F1248D319F
:101AF0003D001010901EB12D01302500E700003090
:101B0000E8006808803ADD0080305D02031D8A2D00
:101B1000043067020318AF2D98302500DD000E3029
:101B2000DE0067085D07DF0068085E3DE0005F08D3
:101B3000E4006008E500640886006508870001107D
:101B40000130E7070030E83D6808803ADD0080306A
:101B50005D02031DAD2D04306702031C8C2D3D007A
:101B60009012901D862E0F0C2500DD00DD0C5D0C03
:101B70000F39003A031DE22D3D000F19E22D200020
:101B8000200C890C0F392500DD005D08E6000D30C2
:101B90006606031DCF2D943195248D31DE2D09303D
:101BA000250066060319DE2D6603031DDB2D963125
:101BB00044268D31DE2D9031A0208D319031AA2028
:101BC0008D31842E3D000F0C2500DD00DD0C5D0CF9
:101BD0000F39003A031DF32D3D000F1DF32D9531F4
:101BE000BA258D31842E3D000F0C2500DD00DD0C63
:101BF0005D0C0F39003A0319842E3D000F0C2500AF
:101C0000DD00DD0C5D0C0F39DE0004305E020318D0
:101C1000842E3D000F1D482E0F0C2500DD00DD0C2D
:101C20005D0C0F39DE00DF015E08F4005F08F5008F
:101C30000730F6000030F70091315D218D317408D6
:101C4000063E2500E0000030753DE100D030E200A6
:101C50000330E3006008620786006108633D870087
:101C6000811C3D2E3D000F0C2500DD00DD0C5D0CC0
:101C70000F399331AD238D31842E3D000F0C25009B
:101C8000DD00DD0C5D0C0F3990314A208D31842E42
:101C90003D000F0C2500DD00DD0C5D0C0F39DE0072
:101CA000DF015E08F4005F08F5000730F600003041
:101CB000F70091315D218D317408063E2500E0006A
:101CC0000030753DE100D030E2000330E3006008F1
:101CD000620786006108633D8700011C7A2E3D0083
:101CE0000F0C2500DD00DD0C5D0C0F399131E82172
:101CF0008D31842E3D000F0C2500DD00DD0C5D0CC8
:101D00000F3990314B208D313D009011101F8D2ED9
:101D100090314C208D313D0010132000121D080021
:101D2000121108003D000E172600D5012500B40150
:101D3000043034020318C92E3408AA00AB012A0863
:101D4000F4002B08F5000730F6000030F700913161
:101D50005D218E317408063E2500AC000030753DD3
:101D6000AD00D030AE000330AF002C082E07B0001D
:101D70002D082F3DB100300886003108870004305F
:101D800081000130AA002A08B40704303402031C81
:101D90009C2E2030F4000030F5000030F600F700F3
:101DA0002030F8000030F900913145218E312600B5
:101DB0005208FB005108FA00943142248E317B080E
:101DC0002000A3007A08A20008302500AA002A08F3
:101DD0002000A10080302500AA002A082000A000D1
:101DE00026005408FB005308FA00943142248E3137
:101DF0007B082000A7007A08A60008302500AA006A
:101E00002A082000A500A4012500B401B40A04306A
:101E100034020318FD2F3408AA00AB012A08F4008D
:101E20002B08F5000730F6000030F70091315D21F6
:101E30008E31D0302500AC000330AD0074082C0783
:101E4000860075082D3D8700403FB200413FB3003A
:101E50003308FB003208FA00943142248E31250009
:101E60003435AA000130AA35FF3E031D332F2A3531
:101E7000023E203E860087017A08C03F7B08C13FB2
:101E80003408AA00AB012A08F4002B08F50007303B
:101E9000F6000030F70091315D218E317408043E68
:101EA0002500AC000030753DAD00D030AE000330F1
:101EB000AF002C082E0786002D082F3D8700010853
:101EC000B0003435B1000130B135FF3E031D642F41
:101ED0003135013E203E8600870130088100883080
:101EE000AA003435AB000130AB35FF3E031D742F23
:101EF0002B35203E860087012A0881003408AA007D
:101F0000AB012A08F4002B08F5000730F60000307A
:101F1000F70091315D218E317408023E2500AC003E
:101F20000030753DAD00D030AE000330AF002C085E
:101F30002E0786002D082F3D8700403FB200413F0D
:101F4000B3003308FB003208FA00943142248E318A
:101F500025003435AA000130AA35FF3E031DAC2F01
:101F60002A35063E203E860087017A08C03F7B085E
:101F7000C13F3408AA00AB012A08F4002B08F50081
:101F80000730F6000030F70091315D218E31740882
:101F9000053E2500AC000030753DAD00D030AE00F0
:101FA0000330AF002C082E0786002D082F3D870038
:101FB0000108B0003435B1000130B135FF3E031DDA
:101FC000DD2F3135053E203E860087013008810037
:101FD0003435AA000130AA35FF3E031DEB2F2A3508
:101FE000043E203E8600870181010130AA002A08B4
:101FF000B40704303402031C0B2F3D000E130800FD
:1020940008000800080008000800FF3008000030AD
:1020A4000800260050080800F401F50108009031EA
:1020B400962024001614080090319620240016154A
:1020C4000800FF30F400FF30F5000800031024007E
:1020D400161F03140030093D0800FA0090319620C1
:1020E4007A082400910008000830F40074082000E5
:1020F400A500A401080020342034283420340034FE
:10210400003498342000A401A501C830F4007408F8
:10211400A400080021000E158E150C168C16200044
:10212400F1012600B40108002830890B9728923168
:1021340025229031003A031D080099280830F40044
:1021440074082000A5008430F4007408A40008007A
:102154000830F40074082000A1008030F4007408F2
:10216400A00008002600AE01AF01AC01AD012500BE
:10217400E901EA01EB01EC0108006400800101318E
:102184000130FE020030FF3B7F087E040319003457
:10219400C028FE0012001E000130FE020030FF3B8A
:1021A4007F087E0403190034CC2825002208031973
:1021B40008003C30A4002408FD00260035089231B4
:1021C4008F22080023000E108E1028302400950062
:1021D40096019701773092001030940021000E147C
:1021E4008E140800F5007535F4000130F435FF3E17
:1021F400031DF8287435043E203E86008701010D36
:10220400010D01390800F5007535F4000130F4358D
:10221400FF3E031D09297435203E86008701031003
:10222400811F03140030093D080021008E160E1290
:10223400243023009E0090309D0000309C006730C5
:102244009B0008309F0019082600B0012500ED010D
:102254002600A201A30108009031B42079082500CA
:10226400EC007808EB0075082600AD007408AC009B
:1022740077082500EA007608E9007A08FB007B0865
:102284002600B70008007508FB007408FA00013046
:10229400F8020030F93B780A0319790A0319080097
:1022A4007A0886007B088700760881000130FA07E7
:1022B4000030FB3D4929F801F901741C65297608B1
:1022C400F8077708F93D0130F635F70D890B6629D3
:1022D4000130F536F40C890B6B2974087504031D61
:1022E4005F297908F5007808F4000800250038080B
:1022F400EC003708EB0039082300EE006E082600D6
:10230400B70025003408A7003308A6003608A90042
:102314003508A8003608AB003508AA0089313421F5
:10232400080025003A0886003B088700C0300106F3
:10233400031D9E290030A02900302500B300003081
:10234400B4000030B500B6000030B700B800B901E1
:102354009131782100300800003400340034003416
:102364000034003400343034203431342034013427
:102374004034003471342034B134203440340A34CD
:102384000034BB342034FB34203440344034003433
:10239400FB009031962091312400961590319620BF
:1023A400913124001108FA007A08FC00903196203B
:1023B4009131240096117B08031DE329240096160D
:1023C400E5292400961216167C080800F6007635D6
:1023D400F4000130F435FF3E031DEC297435013E51
:1023E400203E8600870181018430F4007635F500B3
:1023F4000130F535FF3E031DFB297535203E86006F
:10240400870174088100080023008C018E0190313B
:102414008C2092319131172192319031E420923104
:102424009431F12492318D316F25923190315320C2
:102434009231003A0319152A8A319F229231973139
:102444005F279231152A2400160C0139F400160C6A
:10245400F500F50C750C0139F60016080139F70082
:10246400160C890C0139F800160E0139F900140C08
:10247400890C013979047804770476047404031D03
:10248400452A0130080000300800FA007A082500C7
:10249400A000A1012008F4002108F5000730F6008F
:1024A4000030F70091315D217408063E2500A2003A
:1024B4000030753DA300D030A4000330A5002208ED
:1024C400240786002308253D8700010802390800F7
:1024D400FA007A082500A000A1012008F4002108D0
:1024E400F5000730F6000030F70091315D217408E3
:1024F400023E2500A2000030753DA300D030A400A8
:102504000330A5002208240786002308253D870000
:10251400403FFA00413FFB0008007D08860003307D
:102524008700403FF400413FF500423FF600433F3F
:10253400F7000030FB00B730FA001B30F900003020
:10254400F8009331EF237408FF3E2500A000FF300C
:10255400753DA100200823009B00250021082300CD
:102564009C0008000030923147229231003A031D4A
:1025740008002600D51DC02A0130C12A0030FD0004
:102584007D082300EB002000A40123006B0803193D
:10259400D22A7B08FD007D082000A500C830D82A77
:1025A4007B08FD007D082000A5008830FD007D0823
:1025B400A4000830FD007D082600D5060800FB00B5
:1025C4007B080319080004307B02031808007B0809
:1025D4002500A800A9012808F4002908F5000730FF
:1025E400F6000030F70091315D2192317408063E07
:1025F4002500AA000030753DAB00D030AC0003309C
:10260400AD002A082C0786002B082D3D8700811475
:102614007B089331AD230800FA007A0803190800F7
:1026240004307A02031808007A082500A000A101EA
:102634002008F4002108F5000730F6000030F70008
:1026440091315D2193317408063E2500A2000030CB
:10265400753DA300D030A4000330A5002208240750
:1026640086002308253D870001147A089131E8216A
:102674000800FC007C082300EB00EC016B08F4006C
:102684006C08F5000730F6000030F70091315D2149
:102694009331D0302300ED000330EE0074086D0751
:1026A400860075086E3D87007A0884007B088500E3
:1026B400403F803F413F813F7C35EB000130EB35AB
:1026C400FF3E031D612B6B35013E203E86008701D2
:1026D4000108080025004B0886004C088700443197
:1026E400403FCD00413FCE00CE1F7F2B4C08BB00A6
:1026F4004B08BA0086311826080025004B088600CE
:102704004C088700011F8D2B4C08BB004B08BA00F6
:1027140091319321080025004D034E040319972B92
:1027240002304D064E04031D9E2B4C08BB004B0883
:10273400BA00883192200800043025004D064E046A
:10274400031DAB2B4C08BB004B08BA009631D126B5
:102754000800FF300800FA007A082500A000A10153
:102764002008F4002108F5000730F6000030F700D7
:1027740091315D2193317408053E2500A20000309B
:10278400753DA300D030A4000330A500220824071F
:1027940086002308253D87000108A6007A35A70096
:1027A4000130A735FF3E031DD32B2735053E203EC0
:1027B40086008701260881008430A0007A35A100B4
:1027C4000130A135FF3E031DE32B2135043E203E9D
:1027D4008600870120088100080000302300EE00F5
:1027E4000030ED000030EC000030EB007708760498
:1027F400750474040319392CEF01EF0AF71B0E2C2E
:102804000130F435F50DF60DF70D890B032C01306D
:10281400FC007C08EF07002C0130EB35EC0DED0DCE
:10282400EE0D890B0F2C77087B02031D232C7608F1
:102834007A02031D232C75087902031D232C7408C6
:102844007802031C2E2C7408F8027508F93B7608EC
:10285400FA3B7708FB3B6B140130F736F60CF50CAA
:10286400F40C890B2F2C0130EF02031D0E2C6E0883
:10287400F7006D08F6006C08F5006B08F40008001A
:102884007B082300EE007A08ED0020306E02003051
:1028940003196D02031C532C6E08FB006D08FA002B
:1028A40008006E082500A00020082300EB006D0836
:1028B4002500A00020082300EC006C0880392500C6
:1028C400A000A10123006B082500A200A301A235EA
:1028D400A30D20082207A4002108233DA5002408F5
:1028E40025040319772C0130782C0030A600A701A9
:1028F4002608F4002708F5005030F6000030F700F1
:1029040091315D2123006C087F3974072500A800EC
:1029140075080318750AA9002808E03EFA001F305C
:10292400293DFB000800260052082500DC00260093
:1029340051082500DB005B0886005C088700003036
:10294400811B01302600B60090317620943120009E
:10295400A41FB32C08302500D90059082000A50075
:10296400A401250069086A040319CB2C6B086C04C4
:102974000319C82CA201260037082500D9005908DC
:10298400A3006C088A006B080A0094319031B420CB
:10299400943125005B0886005C088700010E890CD1
:1029A4000339003A031DDF2C82316822943125005B
:1029B400D9005908DA00DA1FEE2C5C08CC005B0859
:1029C400CB0093316C2394312500D9005908DA00E7
:1029D400DA1FEE2C9031A0203D000E1208003D00BD
:1029E40011109110920197018E1511161115901165
:1029F40090119011901190019830F4000E30F50070
:102A04000030F600F7001030F8000030F900913182
:102A1400452194313D001816981118159814181072
:102A24002500B501B50A043035020318442D3508D4
:102A3400983EFC00FD010E30FD3D7C08B6007D088B
:102A4400B700360886003708870001163608860066
:102A54003708870081153608860037088700011576
:102A64003608860037088700811436088600370840
:102A7400870001100130FC007C08B50704303502E2
:102A8400031C192D3D0096012600BB01D0018E3197
:102A9400922694319031B420080025006E1C552DE7
:102AA4009031592095312600320890316F209531AC
:102AB40010302500A4009430890B5E2DA40B5E2DEC
:102AC4000000903168209531003A031D6B2D0230CF
:102AD4006C2D01302500A5000030A6002508A400B7
:102AE4002408EF006F03031DB12DA901AA012600DC
:102AF400270825002A02031D832D26002608250009
:102B040029020318B12D2908203E860004308700CD
:102B1400010890316F20953110302500A4009430C5
:102B2400890B922DA40B922D0000903168209531D1
:102B3400003A031D9F2D0230A02D01302500A7006F
:102B44000030A8002708A4002408EF0002306F0614
:102B54000319B12D0130A9070030AA3D792DEE18D3
:102B6400B72D02306F06031D080090315E20080067
:102B740026003B080319C32D3A083D0096002600A1
:102B8400BB01250069086A0403191C2E00306A027F
:102B9400083003196902031CD42D0830AD0000303D
:102BA400AE00D82D6A08AE006908AD002D08AB0050
:102BB4002B08AF002600530886005408870026001F
:102BC4002E0884002F08850025002F08AB002B0851
:102BD4000319F02D12001E00AB0BEC2D25002F085D
:102BE400AB00AC012B08E9022C08EA3B2F08AB0030
:102BF400AC012B082600AE0725002C082600AF3DAB
:102C0400250069086A04031D112E08302F06031DD0
:102C1400112E260038080319112EB901B90A25000E
:102C24002F08AB00AC012B08FB002C08FC009231F0
:102C3400B42208002600390803192B2E0030FB00AB
:102C4400FC009231B42295312600B9019031B420B0
:102C5400080026003608031D080025006B086C04D4
:102C64000319412EA201A20A260037082500AB0051
:102C74002B08A3006C088A006B080A009631903177
:102C8400B4200800200021082500AB002B08AF0069
:102C940026003603031D632E25006B086C040319FC
:102CA400602EA201A20A260037082500AB002B08DB
:102CB400A3006C088A006B080A0096319031B42096
:102CC400080026002C082D040319080025002F08ED
:102CD400AB00AC016A082C02031D722E69082B029A
:102CE400031C792E6A08AE006908AD00802E2F08F7
:102CF400AB00AC012B08AD002C08AE002D08AB00D6
:102D04002B08B00026002C0886002D08870026001A
:102D1400510884005208850025003008AB002B08B8
:102D24000319982E12001E00AB0B942E25003008B8
:102D3400AB00AC012B082600AC0725002C082600AC
:102D4400AD3D25003008AB00AC012B08E9022C088E
:102D5400EA3B08302F02031CB32E69086A04031DE2
:102D640008002F0830020318CE2E9031A02096318F
:102D740025006B086C040319CB2EA201260037082A
:102D84002500AB002B08A3006C088A006B080A001E
:102D940096319031B4200800903184200800250039
:102DA4003A0886003B08870021300106031D022FE4
:102DB4003A0886003B08870041310108031D022FB1
:102DC4002600CF01CF0A00302500B3000030B40044
:102DD4000030B500B6000030B700B800B901913139
:102DE400782196313D000E12EA302300EF00C33003
:102DF400890BFA2EEF0BFA2E013021009700012FD8
:102E040025003A0886003B088700A1300106031D0F
:102E1400242F3A0886003B0887004131053001061B
:102E2400031D242F4F30B3000330B4000130B5002C
:102E34000030B6000030B700B800B90191317821F4
:102E44000030080025003A0886003B088700A130BE
:102E54000106031D5D2F3A0886003B0887004131B7
:102E640003300106031D5D2F26004F082300EF00E9
:102E74006F082600C700C301C40104302300EF001B
:102E84006F082600C500C601FF302300EF006F085D
:102E94002600C80043302500B3000330B4000630D8
:102EA400B5000030B6000030B700B800B901913168
:102EB400782100300800FF300800B92F013092312A
:102EC40047229731003A031DC02F200071080319CF
:102ED400C02F013092316A2297317B082500AE0061
:102EE4007A08AD0020007108FD007D082500B100BE
:102EF4003F303102031C822F3E30FD007D08B100BB
:102F04002D0886002E0887004231203084000230CC
:102F1400850025003108FD007D080319952F120056
:102F24001E00FD0B912F25003108023EFB000030EE
:102F340003180130FC00013088310020973125004E
:102F440031082000F102203086000230870025007D
:102F54003108203E84000230850020007108FD0005
:102F64007D080319B92F12001E00FD0BB52F013087
:102F74009031F4209731003A0319602F0A30200071
:102F84007102031808000230913105219731003A8B
:102F94000319080026003408031DD82F21000E1140
:102FA4008E110C128C162600B401B40AAF30FA004C
:102FB4000230FB00023093313B239731FD007D0842
:102FC4002000F0007108203E8600023087002500B2
:102FD4002F0884003008850020007008FD007D085B
:102FE4000319F82F12001E00FD0BF42F0230893153
:102FF400D92197318B3165239731B92F09340234A4
:1030040075340034053401340034803432340934E6
:103014000434003400340234FF34FF34FF34043405
:103024000734053481340234403400340034073426
:103034000534023402344034003400340934043496
:1030440001340034013402340234003405340534CC
:10305400243400341034013404342434023400346D
:103064000534243406340134023405342434013460
:103074000134023407340534823403340A3400340E
:103084000134093404340234003402340A34003480
:103094000034063407340534033402344034003435
:1030A40000340734053483340234403400340034AB
:1030B40009340434033400340034FF34FF3401345D
:1030C400073409340434043400340034FE34013445
:1030D40001340834093421340F34003400344034CA
:1030E4000034003401344D345834313430342F3406
:1030F400533470346934643465347234203449345C
:10310400323443342034543469346E34793455348D
:103114005334423400344D345834313430342F3441
:103124005334703469346434653472342034433431
:103134004434433420345334653472346934613450
:103144006C3400344D345834313430342F345334E7
:103154007034693464346534723453346F344D34A8
:1031640020344D34433455340034123401340034A3
:1031740002340034003400340834D8340434D034F5
:10318400EF340034013402340334013401344D3457
:103194005834313430342F34533470346934643413
:1031A4006534723420344A3454344134473400345E
:1031B4004D345834313430342F345334703469340A
:1031C4006434653472342034443446345534003421
:1031D40041347234693465347334203445346D3485
:1031E40062346534643464346534643400340434DF
:0631F40003340934043429
:020000040001F9
:04000E008CCFCFDFE5
:00000001FF
